:020000040000FA
:020000000528D1
:040002000034003492
:08000800442885018316043031
:10001000810085010130860083120330A200A30114
:10002000A40185110230A6008B160B1681018B17D7
:100030006300061821280330A200A301A401851142
:10004000810124083420860005143F200510230870
:100050003420860085143F20851022083420860035
:1000600005153F200511192882078034F2344834E1
:100070006034323424340434F034003430341130F9
:10008000A500A50B41280800A000030EA1008B1CB1
:100090004C288B10810174280B11061C7428A408AD
:1000A000031D7328A308031D6F28A208031D6928D8
:1000B0008515A60B74288511050885016300850048
:1000C0000230A6000330A200A301A4018511810122
:1000D0007428A2030530A3000930A4007428A303E8
:1000E0000930A4007428A403210E8300A00E200E62
:0200F000090005
:02400E00F03F81
:00000001FF
